:080000000C9451000C94000067
:100008000C9400000C9400000C9400000C94000068
:100018000C9400000C9400000C9400000C94000058
:100028000C9400000C9400000C9400000C94000048
:100038000C9400000C9400000C9400000C94000038
:100048000C9400000C9400000C9400000C94000028
:100058000C9400000C9400000C9400000C94000018
:100068000C9400000C9400001027E80364000A00B8
:1000780001000010000110000100E8033E03257391
:100088002025640D000001002D4E414E00494E46CA
:100098000000010030028E000000F894EE27ECBB4F
:1000A800F1E0FBBFEBBFE5BFE6BF8DE0A2E0BB27F9
:1000B800ED938A95E9F780E094E0A0E0B1E0ED9354
:1000C8000197E9F7EAE9F0E085919591009761F0E9
:1000D800A591B59105901590BF01F00105900D927D
:1000E8000197E1F7FB01F0CFEFEFEDBFE4E0EEBFE2
:1000F800C0E0D2E00C948000E0E8E0936100E0E02A
:10010800E0936100EABBEBBBE7BBE8BBE4BBE5BB44
:10011800E1BBE2BBE6B9E7B9EBB9E8E0EAB9E6E08A
:10012800E0BDE0E0E0BDEDE4E9B9E0E0E2B9E8E136
:10013800E1B9E6E0ECBFE0E0ECBFEDE4E0B9E9B33B
:10014800F0E00E94AA03A1EAB0EA80EA9CE30E94D8
:100158001005E0930002F09301026093020270938D
:10016800030249B25524F201A5E0B0E00E94E0057F
:100178000E94AA03A5E5B1EC88EC9EE30E94100555
:10018800A4E0B2E00E944F040E94F705E09100024B
:10019800F091010260910202709103020E940F0621
:1001A800E1E0EA93A8E0B2E00E947302E091040261
:1001B800F091050260910602709107020E94860480
:1001C8000E940F06E1E0EA93ACE1B2E00E947302FC
:1001D800E6E8F0E0FA93EA93ECE1F2E066277727A5
:1001E8000E940F06E4E6F0E060E070E00E940F066F
:1001F80088E050D12A96A4E6B0E00E9410049FCF70
:100208000000FECFAA935D9BFECFE881ECB9219652
:100218000895BA93AA93AA81F5DFA881B981ED91CF
:10022800FD913196FE93EE9323960895BA93AA937F
:1002380026970E94260610E0AC85BD85E0E0F0E038
:10024800ED93FC93EA89FB893196EA8BFB8B319716
:10025800E4912E2FE03009F415C1E12FE03039F494
:10026800253211F411E002C00E94AF030AC1E13047
:10027800A9F4253219F40E94AF0302C112E040E04C
:1002880000E02D3211F401E0FCC02B3211F44BE2F6
:10029800F8C0203211F440E2F4C002C0E23039F470
:1002A80050E013E0203311F40068EBC003C0E330E2
:1002B80009F0E7C0203310F02A3308F007C0AAE09D
:1002C8005A9F502DE22FE0535E0FDBC0E22FE3363A
:1002D80049F40E94B603E889F989A481AA930E9487
:1002E800BC03CEC0E33741F40E94B6030E94C203A8
:1002F8000E9449031E2F0AC0E03761F40E94B6032A
:100308000E94C2030E9455031E2F086002600F77E7
:1003180030E034C0E43611F0E93611F4046002C06C
:10032800E53731F4E0E7F0E0EE83FF8315E00CC039
:10033800E83511F4086003C0E83709F0A1C0EAE71E
:10034800F0E0EE83FF8314E002FF14C00E94B603BE
:100358000E94CC03AB85AA233AF4EA85FB850E9468
:10036800C705EA87FB874DE2403011F01F5F01C0E7
:100378000B7F04C00E94B6030E94CC0300FD11C08D
:10038800151778F407FF08C002FF04C00B7F242F5D
:10039800115001C020E301C020E20E94AF03515078
:1003A800EFCF312F01FF17C03030A1F003FF06C097
:1003B800EE81FF812591EE83FF8305C0AE81BF8169
:1003C8002D91AE83BF830E94AF03503009F0515086
:1003D8003150EACF4BC020E3EE81FF810E94FC053B
:1003E800E887F987EE81FF813296EE83FF83E885FF
:1003F800F985AA85BB85AE17BF0750F02F5FA88582
:10040800B985EA85FB85EA1BFB0BEA87FB87EFCFFB
:100418002A3328F003FF02C0295F01C0295D04FDCB
:100428001AC0213320F4A885B985119709F409C0A9
:10043800531710F000FF01C013C020E207FF0BC0E4
:1004480020E3006102FF07C00B7F4A930E94BC03B0
:10045800503009F051500E94AF03503009F051500C
:100468003150A885B985129708F0B5CF00FF08C0AC
:10047800503031F05150E0E2EA930E94BC03F8CFCB
:1004880010E0E0CEAC85BD850E94F3050E942D06E4
:1004980064960895FF92F82E26971A930A93DE0120
:1004A80014960E94C3058D01E0E0EC83ED83EE8392
:1004B800EF83DE0118960E94C3050E94F305FA93A4
:1004C800EA931A930A93EDE0F1E0FA93EA93DE01D6
:1004D8001896ACDE198108812896FF900895BA9382
:1004E800AA932497E0E0E883E983EA83EFE3EB83C8
:1004F8001A930A93EB85FC85EF3FAFEFFA0739F4BF
:100508000E94D403A0E9B0E00E943C03ADC0EF3FD5
:10051800AFE7FA0739F40E94D403A1E9B0E00E94DA
:100528003C03A2C0AC85AA2362F4E985FA856B85F1
:100538007C850E941A040E94D9030E94DE03EDE222
:10054800EC93A885A73010F0E6E0E8871885E12F3E
:100558001150E03039F00E94E5030E94EA030E943E
:10056800F103F5CF0E94F6030E94C0040E94D9034C
:1005780010E0E0E0F0E060E87FE30E94F1030E9411
:10058800F6030E94A30588F00E94E5030E94FF037A
:100598000E94F1031F5F173238F00E94D403A5E9C7
:1005A800B0E00E943C0360C0EACF103029F40E94FA
:1005B800DE03E0E3EC932DC0E12F1150E03049F168
:1005C8000E94E5030E94EA03A0E0B0E080E09FE318
:1005D8000E94C004DF01CB010E9493030E94F10333
:1005E8000E94F6030E945E050E944D040E2F0E9491
:1005F800DE03E02FE05DEC93E02FF0E00E94E503DE
:100608000E94AA030E9410050E9406040E940B047F
:10061800D3CFE885E03021F10E94DE03EEE2EC93CF
:10062800E885E150E887EF5FD9F00E9406040E9450
:10063800FF030E94D903E985FA856B857C850E94B2
:100648004D040E2F0E94DE03E02FE05DEC93E02FB7
:10065800F0E00E9406040E94AA030E940B04E0CF67
:10066800AE81BF81E0E0EC93198108812D96089551
:10067800BA93AA93E991F991A991B991CD010590FD
:100688000D920020E1F7FC010895BA93AA93A9916D
:10069800B991EE27FF276D91662311F03196FBCFB4
:1006A8000895BA93AA93AA27BB27E991F9910590CF
:1006B800002011F01196FBCFFD0108950E94140649
:1006C8007B816A81F981E88177FB770F67FD71602B
:1006D800972F9E5781F078F0983190F4AA27BB277E
:1006E800882708948795B795A7959A95D1F7EA230F
:1006F800FB23682305C0E8947727EE27FF276627A2
:100708006F77769508F4606877F9A991B99189911E
:100718009991EA17FB076807790797FB08950E94E4
:1007280014060E9405060E9462030E940A0619F434
:100738000E94000609C0E6F70E940006A0E0B0E0AB
:1007480080E89FE30E94B904249608950E94D30587
:100758000E94860408952A93AD85BE85EF85F889A1
:1007680009950895E889F9893497E88BF98B0895F4
:10077800AD85BE85EF85F88909950895A889B98959
:1007880014960E94F305EE83FF83AE81BF8108951E
:10079800A889B98914960E94F305EA87FB8708950A
:1007A800EE81FF81FA93EA930895E987FA876B87C8
:1007B8007C870895AE81BF811196AE83BF83119760
:1007C8000895AA81BB818C819D810895EDECFCEC94
:1007D8006CEC7DE30E9410050895EA83FB836C832B
:1007E8007D830895EA81FB816C817D81A985BA8525
:1007F8008B859C850895E0E0F0E060E271E40E945A
:1008080010050895A985BA858B859C8508950E9451
:1008180019060E94B904C9CF109639F088EB9BE0FD
:100828000197F1F7A8951197C9F708953097604097
:10083800704009F070580895552342F4503811F467
:10084800E0FF04C03196691F791F6BF050E8572705
:1008580011F45F93CFC05F3F31F0660F000C5795DE
:100868006795752F08955F9300200AF0CFC0C8C020
:1008780050E8192E1522880F991F9527550F87952F
:1008880050E8072E0522660F771F7527550F6795C5
:100898000895689401C0E8945F93F2DF703818F007
:1008A8007F3F08F4A7C056E1571BAAF4519558306A
:1008B8000EF4593030F0EFEFFFEF6FEF7FE777F985
:1008C8001AC077275523B9F0EE0FFF1F661F771F51
:1008D8005A95D1F710C07727583028F0EF2FF62F08
:1008E800672F5850F9CF552331F076956795F795CE
:1008F800E7955A95D1F700200AF449D15F910895F8
:10090800689401C0E894309760407040B1F00024CA
:1009180026F0772312F400943AD1172E7EE11120A5
:1009280032F07A95EE0FFF1F661F111CF9CFEF2FDB
:10093800F62F612D5F938ADF5F9108954F93AF0182
:10094800FD01DA01AB01BC01CA01402D012C142EB6
:100958004F910895EA0FFB1F681F0895E095F095E1
:100968006095EF5FFF4F6F4F08955F9381DF903879
:1009780071F150E8152604C05F937ADF903839F199
:10098800703821F1572F591B2BF112F4D7DFFACF0A
:10099800583118F0AA27BB278827583028F0AB2FE2
:1009A800B82F88275850F9CF552329F08695B79541
:1009B800A7955A95D9F7502D512572F0CBDF38F409
:1009C8006795F795E795739513F420C0B7DF3EDF79
:1009D8005F910895D8F7FBCFEA1BFB0B680B51F02A
:1009E80010F40094BBDF662392F3EE0FFF1F661F1F
:1009F8007A95CBF7EE27FF27662777275F9108952B
:100A0800EFEFFFEF6FE77FEF5F910895EFEFFFEFF5
:100A18006FE77FE75F9108955F932ADF703851F39E
:100A2800903841F301240894791F23F41CF3002023
:100A38003AF3ECCF0F921F932F933F934F931127C5
:100A480022279927689FA0018F9F302D410D591F9C
:100A58006B9F300D411D591F8E9F27D0BF9F25D0FA
:100A68006A9F23D0BE9F1DD0AF9F1BD0AE9F110D94
:100A7800291F391F491F591FE32FF42F652F522FA4
:100A88004F913F912F911F910F9066232AF0550F98
:100A9800EE1FFF1F661F02C073954BF2CDDE5F91FC
:100AA8000895100D211D391F02C0200D311D491F49
:100AB800591F08955F93DCDE703821F411200AF481
:100AC8009FCFA4CF903809F495CF01240894970BB1
:100AD8001BF4D4F30020F3CF792F1F932F933F9368
:100AE8004F9311241127222733274427552790E2B3
:100AF800AE17BF078607410730F0AE1BBF0B860B4A
:100B0800410B089401C08894551F221F331F111CE4
:100B1800AA1FBB1F881F441F9A9551F7F901612D21
:100B28004F913F912F911F91662332F0550FEE1F81
:100B3800FF1F661F7A9543F27FDE5F910895992320
:100B48009AF0772342F0971748F029F4AE17BF07B9
:100B5800860720F031F09894889408959894089422
:100B680008951894889408957723C2F7971798F3EF
:100B7800A9F7EA17FB07680788F399F3ECCF002475
:100B8800AF0DB01D0895F195E195F0400895F095E9
:100B980060957095E195FF4F6F4F7F4F08956F2FC8
:100BA800660F660B762F0895FA9FF02DEB9FF00DD8
:100BB800EA9FE02DF10D089504D0F6DF0EF4E3DF8F
:100BC8000895E894F7FF02C0DEDF6894B7FF06C017
:100BD800A095B095119600F8039400FA0895ED9148
:100BE800FC9111970895ED93FD936D937C9308956F
:100BF8000590F491E02D0895E881F9816A817B815F
:100C08000895A881B9818A819B810895E883F98331
:100C18006A837B8308957A936A93FA93EA93089593
:100C28009A938A93BA93AA930895182E862F612DC2
:100C3800192E972F712D1B2EBF2FF12D1A2EAE2F87
:100C4800E12D08955A934A933A932A931A930A9353
:100C580008955D814C813B812A811981088108951D
:00000001FF
